:020000023000CC
:10E0000078C0000095C0000093C0000091C00000DF
:10E010008FC000008DC000008BC0000089C00000D0
:10E0200087C0000085C0000083C0000081C00000E0
:10E030007FC000007DC000007BC0000079C00000F0
:10E0400077C0000076C0000073C0000071C00000FF
:10E050006FC000006DC000006BC0000069C0000010
:10E0600067C0000065C0000063C0000061C0000020
:10E070005FC000005DC000005BC0000059C0000030
:10E0800057C0000055C0000053C0000051C0000040
:10E090004FC000004DC000004BC0000049C0000050
:10E0A00047C0000045C0000043C0000041C0000060
:10E0B0003FC000003DC000003BC0000039C0000070
:10E0C00037C0000035C0000033C0000031C0000080
:10E0D0002FC000002DC000002BC0000029C0000090
:10E0E00027C0000015F2B5F2EDF211F334F34EF350
:10E0F0006AF211241FBECFEFD1E2DEBFCDBF01E037
:10E100000CBF12E0A0E0B2E0E8E4FBEE03E00BBFDE
:10E1100002C007900D92AA31B107D9F722E0AAE117
:10E12000B2E001C01D92AB31B207E1F7F5D00AC5EC
:10E1300067CF1F920F920FB60F9211248F93809189
:10E140001A02882341F085B1805885B980911A025E
:10E15000815080931A028F910F900FBE0F901F90E5
:10E160001895EF92FF920F931F93CF93DF938B013C
:10E17000EA01790144E050E06EE070E0B4D444E09C
:10E1800050E06AE070E0C801AED446E050E064E0E0
:10E1900070E0CE01A8D444E050E060E070E0C70138
:10E1A000DF91CF911F910F91FF90EF909CC4EF9260
:10E1B000FF920F931F93CF93DF938B01EA017901B5
:10E1C00044E050E06EE070E076D444E050E06AE075
:10E1D00070E0C80170D446E050E064E070E0CE0129
:10E1E0006AD444E050E060E070E0C701DF91CF9175
:10E1F0001F910F91FF90EF905EC44F925F926F92CC
:10E200007F92BF92CF92DF92EF92FF920F931F9374
:10E21000CF93DF93CFB7F8940027162F272F382FEF
:10E22000F999FECF83E0F80120935B0080935700BB
:10E23000E89507B600FCFDCF412C512C3201D1E00E
:10E24000FA01E40DF51DB08073016201C00ED11E0C
:10E25000E21EF31EA181B0E0BA2FAA27AB0DB11DBB
:10E260000D01F601E0925B00D0935700E895112470
:10E2700082E0480E511C611C711C411481E058065B
:10E2800061047104E9F685E0F80120935B00809356
:10E290005700E89507B600FCFDCFCFBFDF91CF91C7
:10E2A0001F910F91FF90EF90DF90CF90BF907F90E4
:10E2B0006F905F904F900895CF92DF92EF92FF9210
:10E2C0000F931F9321E120935700E89507B606FCB2
:10E2D000FDCFCC24D62EE72EF82EDA0140E050E018
:10E2E000BA018A019B010C0D1D1D2E1D3F1D2BBF68
:10E2F000F80107910D934F5F5F4F6F4F7F4F4115AF
:10E3000081E058076105710561F71F910F91FF903A
:10E31000EF90DF90CF900895CF93DF93CDB7DEB726
:10E32000C750D1400FB6F894DEBF0FBECDBFF894F2
:10E3300014BE88E10FB6F8948093600010926000DC
:10E340000FBE279A81E085BF82E085BF9D9AA59A7E
:10E350002FEF33EC89E0215030408040E1F700C0DE
:10E36000000020E032E044E052E06AE072E08EE03B
:10E3700092E01DDF59D220E032E044E052E06AE052
:10E3800072E08EE092E0E8D16DEC72E380E090E024
:10E390008AD28AE080931A02109280008DE08093E6
:10E3A00081001092820089E09DE390938900809320
:10E3B000880082E080936F007894812C912C540126
:10E3C000C12CD12C760100E01AE07724739471E11E
:10E3D000672E80911A02811118C08AE02F9A9FEF50
:10E3E000A1EEB4E09150A040B040E1F700C00000C1
:10E3F0002F982FEF31EE94E0215030409040E1F71C
:10E4000000C00000815051F705E080E090E01BD291
:10E410002C0180E090E02FD2402F50E04730510592
:10E42000C0F6FA01EE58FF4040C3A4E04A1651047A
:10E4300080F240E050E064E070E0CE010196CFD27F
:10E440008981803511F58A81823509F0C2CF8B81AF
:10E450008F3409F0BECF8C81873409F0BACF87E0C2
:10E46000E2E1F2E0DE01AF5FBE4F01900D928A95CE
:10E47000E1F740E050E066E070E0CE018F5F9E4F34
:10E480003CD210931A0201E0A4CF893409F0A1CF45
:10E490008A81803509F09DCF8B81833509F099CF32
:10E4A0008C81843509F095CF87E0E2E1F2E0DE016E
:10E4B000AF5FBE4F01900D928A95E1F740E050E0CA
:10E4C00066E070E0CE018F5F9E4F17D210931A0264
:10E4D00006E07FCFB2E14B16510408F47ACF40E05A
:10E4E00050E062E170E0CE01019679D2FE013996EA
:10E4F00044E052E09E01215F3F4F290180E090E01F
:10E5000084309105DCF49F0128503109D9016C91C8
:10E510009C01225F3D4FD9016C939F01245031092A
:10E52000D9016C919C01265F3D4FD9016C93D201BA
:10E530006C919C0120503E4FD9016C932191DA01DE
:10E540002D93AD010196BFEF4B1A5B0A8630910502
:10E55000B9F620E032E044E052E06AE072E08EE09A
:10E5600092E0FFDD10921A02BBC024E04216510473
:10E5700008F42FCF40E050E064E070E0CE01019657
:10E580002ED28A80912CA12CB12CBA2CA92C982C9B
:10E5900088248B8190E0A0E0B0E0DC0199278827F7
:10E5A000880E991EAA1EBB1E8981880E911CA11C73
:10E5B000B11C8C8190E0A0E0B0E0B82FAA27992789
:10E5C0008827880E991EAA1EBB1E60E082E190E09B
:10E5D000ABD210931A0202E0FCCE3FEF4316510477
:10E5E00099F090F040E050E060E071E0CE010196DB
:10E5F000F6D1AE014F5F5F4FC701B601FEDD8FEF71
:10E60000C81AD80AE80AF80AC814D904EA04FB04AC
:10E6100009F0DFCE10931A02C12CD12C760103E051
:10E62000D8CE8F3F9105B1F0A8F0AE014F5F5F4F9C
:10E63000C701B60141DE40E050E060E071E0CE018C
:10E6400001965BD1892B09F405E09FEFC91AD90A1D
:10E65000E90AF90AC814D904EA04FB0409F0B9CE9E
:10E6600010931A0204E0B5CE029708F4B2CE40E04F
:10E6700050E062E070E0CE010196B1D189818F3423
:10E6800009F0A7CE8A818B3409F0A3CE61E082E144
:10E6900090E04AD210931A0205E09BCE82E190E00E
:10E6A0001AD28823D9F0F89415B814B814BA13BA4A
:10E6B0001CBC1DBC10928000109281001092820040
:10E6C000109289001092880010926F0075BE15BEDE
:10E6D00060925700E8950C9400007BCE10931A02CC
:10E6E00000E077CE8EBD0DB407FEFDCF8EB5089548
:10E6F0001F93CF93DF931F92CDB7DEB7182F2C98BF
:10E700008FE09983EFDF9981892FECDF812FEADF9A
:10E7100080E0E8DF2C9A0F90DF91CF911F91089550
:10E720001F93CF93DF931F921F92CDB7DEB7182FA1
:10E730002C9880EF6A839983D5DF9981892FD2DF66
:10E74000812FD0DF6A81862FCDDF2C9A0F900F901A
:10E75000DF91CF911F910895CF92DF92EF92FF92B8
:10E760000F931F93CF93DF938C016B01EA01790123
:10E77000FC01608181E090E0D3DFF801618182E0FB
:10E7800090E0CEDFF801628183E090E0C9DFF8011C
:10E79000638184E090E0C4DFF601608185E090E071
:10E7A000BFDFF601618186E090E0BADFF6016281A9
:10E7B00087E090E0B5DFF601638188E090E0B0DFAC
:10E7C000688189E090E0ACDF69818AE090E0A8DFB1
:10E7D0006A818BE090E0A4DF6B818CE090E0A0DFA9
:10E7E0006C818DE090E09CDF6D818EE090E098DFA1
:10E7F000F70160818FE090E093DFF701618180E1B4
:10E8000090E08EDFF701628181E190E089DFF7011E
:10E81000638182E190E0DF91CF911F910F91FF9092
:10E82000EF90DF90CF907CCF249A2C9A209A84B1DD
:10E83000866084B9239880E58CBD81E08DBD60E859
:10E8400080E090E06DCF1F93CF93DF93EC018A5D62
:10E850009B4F4EDF182FCE01895D9B4F49DF212F43
:10E8600030E0322F2227A901480F511DCA01DF9144
:10E87000CF911F9108951F93CF93DF93EC01805E9A
:10E880009B4F36DF182FCE018F5D9B4F31DF212F3D
:10E8900030E0322F2227A901480F511DCA01DF9114
:10E8A000CF911F910895EF92FF920F931F93CF93F3
:10E8B000DF931F92CDB7DEB77C01162F61E09C5F1E
:10E8C00079832EDF7981672FC7018C5F9B4F28DF0B
:10E8D000612FC7018B5F9B4F23DF87010F5F1B4FAA
:10E8E00061E0C8011DDF62E0C8010F90DF91CF91A8
:10E8F0001F910F91FF90EF9013CF2F923F924F9265
:10E900005F926F927F928F929F92AF92BF92CF92BF
:10E91000DF92EF92FF920F931F93CF93DF936C01DF
:10E92000EB018A01CA018D5F9B4FE2DE873109F05E
:10E9300041C048018CED881A8BEF980AC401D8DEDB
:10E94000E82E5801EBEDAE1AEBEFBE0AC501D0DEA2
:10E95000F12CFE2CEE24E80EF11C380163E0660C6D
:10E96000771C6A95E1F7F0EC7F1A16012C0E3D1E1C
:10E9700027014C185D08C214D30459F0C2018C0D54
:10E980009D1D9770F60161916F01860D971DC8DE80
:10E99000F2CFC7018C0F9D1F692FC401C1DE6C2F00
:10E9A0006E0DC501BDDE60E2C8018F5F9B4FB8DE12
:10E9B000CE0102C080E090E0DF91CF911F910F91D6
:10E9C000FF90EF90DF90CF90BF90AF909F908F908F
:10E9D0007F906F905F904F903F902F9008952F926F
:10E9E0003F924F925F926F927F928F929F92AF92DF
:10E9F000BF92CF92DF92EF92FF920F931F93CF932C
:10EA0000DF932C017B018A015A0188EDA81A8BEF54
:10EA1000B80AC5016DDEC82F6801E7EDCE1AEBEF2D
:10EA2000DE0AC60165DED0E0DC2FCC27C80FD11D81
:10EA30004801E3E0880C991CEA95E1F7F0EA9F1A97
:10EA400012012E0C3F1C3E01641875084214530439
:10EA500059F0C301840D951D9770880D991D48DEEE
:10EA6000F20181932F01F2CFCE018E0D9F1D692FF0
:10EA7000C50156DE6C2F6E0DC60152DE60E4C80182
:10EA80008F5F9B4FDF91CF911F910F91FF90EF9080
:10EA9000DF90CF90BF90AF909F908F907F906F90BE
:10EAA0005F904F903F902F903BCEEE0FFF1F059051
:10EAB000F491E02D1994DC01CB01FC01F999FECF12
:10EAC00006C0F2BDE1BDF89A319600B40D924150F6
:10EAD0005040B8F70895F999FECF92BD81BDF89ADC
:10EAE000992780B50895DC01A40FB51F415050400F
:10EAF00040F0CB01840F951F2E9105D0415050401E
:10EB0000D8F70895262FF999FECF92BD81BDF89AC6
:10EB1000019700B4021639F01FBA20BD0FB6F89461
:10EB2000FA9AF99A0FBE0895262FF999FECF1FBAC7
:10EB300092BD81BD20BD0FB6F894FA9AF99A0FBE26
:08EB400001960895F894FFCF3F
:10EB48000A00004BDEADBEEFFEEDFFFFFF000A003E
:0AEB5800001C56312E300D0A00009B
:040000033000E000E9
:00000001FF
